{
  "_format": "hh-sol-artifact-1",
  "contractName": "ClassRegistration",
  "sourceName": "contracts/ClassRegistration.sol",
  "abi": [
    {
      "inputs": [],
      "stateMutability": "nonpayable",
      "type": "constructor"
    },
    {
      "anonymous": false,
      "inputs": [
        {
          "indexed": false,
          "internalType": "uint256",
          "name": "studentID",
          "type": "uint256"
        },
        {
          "indexed": false,
          "internalType": "string",
          "name": "name",
          "type": "string"
        }
      ],
      "name": "StudentRegistered",
      "type": "event"
    },
    {
      "anonymous": false,
      "inputs": [
        {
          "indexed": false,
          "internalType": "uint256",
          "name": "studentID",
          "type": "uint256"
        }
      ],
      "name": "StudentRemoved",
      "type": "event"
    },
    {
      "inputs": [
        {
          "internalType": "uint256",
          "name": "_studentID",
          "type": "uint256"
        }
      ],
      "name": "getStudentById",
      "outputs": [
        {
          "internalType": "uint256",
          "name": "",
          "type": "uint256"
        },
        {
          "internalType": "string",
          "name": "",
          "type": "string"
        },
        {
          "internalType": "bool",
          "name": "",
          "type": "bool"
        }
      ],
      "stateMutability": "view",
      "type": "function"
    },
    {
      "inputs": [
        {
          "internalType": "uint256",
          "name": "_studentID",
          "type": "uint256"
        },
        {
          "internalType": "string",
          "name": "_name",
          "type": "string"
        }
      ],
      "name": "registerStudent",
      "outputs": [],
      "stateMutability": "nonpayable",
      "type": "function"
    },
    {
      "inputs": [
        {
          "internalType": "uint256",
          "name": "_studentID",
          "type": "uint256"
        }
      ],
      "name": "removeStudent",
      "outputs": [],
      "stateMutability": "nonpayable",
      "type": "function"
    }
  ],
  "bytecode": "0x6080604052348015600f57600080fd5b50336000806101000a81548173ffffffffffffffffffffffffffffffffffffffff021916908373ffffffffffffffffffffffffffffffffffffffff160217905550610c668061005f6000396000f3fe608060405234801561001057600080fd5b50600436106100415760003560e01c80633f9586d4146100465780636af8384514610062578063c8fb07931461007e575b600080fd5b610060600480360381019061005b919061062d565b6100b0565b005b61007c60048036038101906100779190610689565b610253565b005b61009860048036038101906100939190610689565b6103ad565b6040516100a79392919061075f565b60405180910390f35b60008054906101000a900473ffffffffffffffffffffffffffffffffffffffff1673ffffffffffffffffffffffffffffffffffffffff163373ffffffffffffffffffffffffffffffffffffffff161461013e576040517f08c379a00000000000000000000000000000000000000000000000000000000081526004016101359061080f565b60405180910390fd5b6001600083815260200190815260200160002060020160009054906101000a900460ff16156101a2576040517f08c379a00000000000000000000000000000000000000000000000000000000081526004016101999061087b565b60405180910390fd5b604051806060016040528083815260200182815260200160011515815250600160008481526020019081526020016000206000820151816000015560208201518160010190816101f29190610aa7565b5060408201518160020160006101000a81548160ff0219169083151502179055509050507f82972a188d7a560cf772804ac1cadfb42df2654ff1ded99159259c287ead26308282604051610247929190610b79565b60405180910390a15050565b60008054906101000a900473ffffffffffffffffffffffffffffffffffffffff1673ffffffffffffffffffffffffffffffffffffffff163373ffffffffffffffffffffffffffffffffffffffff16146102e1576040517f08c379a00000000000000000000000000000000000000000000000000000000081526004016102d89061080f565b60405180910390fd5b6001600082815260200190815260200160002060020160009054906101000a900460ff16610344576040517f08c379a000000000000000000000000000000000000000000000000000000000815260040161033b90610bf5565b60405180910390fd5b60006001600083815260200190815260200160002060020160006101000a81548160ff0219169083151502179055507f59341c48fd0b57ee9c153818be62372ef211cc499da6c2c6d5b8fe49721f36c5816040516103a29190610c15565b60405180910390a150565b6000606060006001600085815260200190815260200160002060000154600160008681526020019081526020016000206001016001600087815260200190815260200160002060020160009054906101000a900460ff16818054610410906108ca565b80601f016020809104026020016040519081016040528092919081815260200182805461043c906108ca565b80156104895780601f1061045e57610100808354040283529160200191610489565b820191906000526020600020905b81548152906001019060200180831161046c57829003601f168201915b505050505091509250925092509193909250565b6000604051905090565b600080fd5b600080fd5b6000819050919050565b6104c4816104b1565b81146104cf57600080fd5b50565b6000813590506104e1816104bb565b92915050565b600080fd5b600080fd5b6000601f19601f8301169050919050565b7f4e487b7100000000000000000000000000000000000000000000000000000000600052604160045260246000fd5b61053a826104f1565b810181811067ffffffffffffffff8211171561055957610558610502565b5b80604052505050565b600061056c61049d565b90506105788282610531565b919050565b600067ffffffffffffffff82111561059857610597610502565b5b6105a1826104f1565b9050602081019050919050565b82818337600083830152505050565b60006105d06105cb8461057d565b610562565b9050828152602081018484840111156105ec576105eb6104ec565b5b6105f78482856105ae565b509392505050565b600082601f830112610614576106136104e7565b5b81356106248482602086016105bd565b91505092915050565b60008060408385031215610644576106436104a7565b5b6000610652858286016104d2565b925050602083013567ffffffffffffffff811115610673576106726104ac565b5b61067f858286016105ff565b9150509250929050565b60006020828403121561069f5761069e6104a7565b5b60006106ad848285016104d2565b91505092915050565b6106bf816104b1565b82525050565b600081519050919050565b600082825260208201905092915050565b60005b838110156106ff5780820151818401526020810190506106e4565b60008484015250505050565b6000610716826106c5565b61072081856106d0565b93506107308185602086016106e1565b610739816104f1565b840191505092915050565b60008115159050919050565b61075981610744565b82525050565b600060608201905061077460008301866106b6565b8181036020830152610786818561070b565b90506107956040830184610750565b949350505050565b7f4f6e6c792061646d696e2063616e20706572666f726d2074686973206163746960008201527f6f6e000000000000000000000000000000000000000000000000000000000000602082015250565b60006107f96022836106d0565b91506108048261079d565b604082019050919050565b60006020820190508181036000830152610828816107ec565b9050919050565b7f53747564656e7420494420616c72656164792065786973747300000000000000600082015250565b60006108656019836106d0565b91506108708261082f565b602082019050919050565b6000602082019050818103600083015261089481610858565b9050919050565b7f4e487b7100000000000000000000000000000000000000000000000000000000600052602260045260246000fd5b600060028204905060018216806108e257607f821691505b6020821081036108f5576108f461089b565b5b50919050565b60008190508160005260206000209050919050565b60006020601f8301049050919050565b600082821b905092915050565b60006008830261095d7fffffffffffffffffffffffffffffffffffffffffffffffffffffffffffffffff82610920565b6109678683610920565b95508019841693508086168417925050509392505050565b6000819050919050565b60006109a461099f61099a846104b1565b61097f565b6104b1565b9050919050565b6000819050919050565b6109be83610989565b6109d26109ca826109ab565b84845461092d565b825550505050565b600090565b6109e76109da565b6109f28184846109b5565b505050565b5b81811015610a1657610a0b6000826109df565b6001810190506109f8565b5050565b601f821115610a5b57610a2c816108fb565b610a3584610910565b81016020851015610a44578190505b610a58610a5085610910565b8301826109f7565b50505b505050565b600082821c905092915050565b6000610a7e60001984600802610a60565b1980831691505092915050565b6000610a978383610a6d565b9150826002028217905092915050565b610ab0826106c5565b67ffffffffffffffff811115610ac957610ac8610502565b5b610ad382546108ca565b610ade828285610a1a565b600060209050601f831160018114610b115760008415610aff578287015190505b610b098582610a8b565b865550610b71565b601f198416610b1f866108fb565b60005b82811015610b4757848901518255600182019150602085019450602081019050610b22565b86831015610b645784890151610b60601f891682610a6d565b8355505b6001600288020188555050505b505050505050565b6000604082019050610b8e60008301856106b6565b8181036020830152610ba0818461070b565b90509392505050565b7f53747564656e7420494420646f6573206e6f7420657869737400000000000000600082015250565b6000610bdf6019836106d0565b9150610bea82610ba9565b602082019050919050565b60006020820190508181036000830152610c0e81610bd2565b9050919050565b6000602082019050610c2a60008301846106b6565b9291505056fea2646970667358221220b63c4a9df8298541c28e50c630d345aa3e644ee789fc6e3f160a56cbd7ca83db64736f6c634300081c0033",
  "linkReferences": {},
  "deployedLinkReferences": {}
}